:030000000209945E
:0C099400787FE4F6D8FD7581230208F698
:10098000003F0006005B004F0066006D00FD0007A1
:0409900000FF006FF5
:1008F60078087C007D007BFF7A0979807E007F1472
:100906001208D0E4F51CF51DE51D25E02408F808BD
:10091600E6F5A0E4F51EF51FE51F25E02408F80816
:10092600E6F5B07FF47E01120954051FE51F70023B
:10093600051EC3940AE51E940040DD051DE51D70E5
:0E09460002051CC3940AE51C940040BC80A26C
:10095400E4F520F521C3E5219FE5209E501DE4F533
:1009640022F5230523E523700205226464452270E1
:0C097400F20521E52170DE052080DA226A
:10080000E709F608DFFA8046E709F208DFFA803EDA
:1008100088828C83E709F0A3DFFA8032E309F608C7
:10082000DFFA8078E309F208DFFA807088828C832F
:10083000E309F0A3DFFA806489828A83E0A3F608E3
:10084000DFFA805889828A83E0A3F208DFFA804CBD
:1008500080D280FA80C680D4806980F28033801094
:1008600080A680EA809A80A880DA80E280CA8033FD
:1008700089828A83ECFAE493A3C8C582C8CCC58375
:10088000CCF0A3C8C582C8CCC583CCDFE9DEE78045
:100890000D89828A83E493A3F608DFF9ECFAA9F0C4
:1008A000EDFB2289828A83ECFAE0A3C8C582C8CC1A
:1008B000C583CCF0A3C8C582C8CCC583CCDFEADE33
:1008C000E880DB89828A83E493A3F208DFF980CC95
:1008D00088F0EF60010E4E60C388F0ED2402B4048E
:1008E0000050B9F582EB2402B4040050AF23234535
:0608F00082239008507302
:00000001FF
