:0300000002095E94
:0C095E00787FE4F6D8FD7581150208F6DC
:08096A000009000C0006000367
:1008F60078087C007D007BFF7A09796A7E007F0894
:100906001208D0E4F510F511E51125E02408F808E1
:10091600E6F5A07FF47E011209320511E511700299
:0B0926000510C39404E510940040DDB0
:0109310022A3
:10093200E4F512F513C3E5139FE5129E501DE4F58D
:1009420014F5150515E5157002051464C8451470F3
:0C095200F20513E51370DE051280DA22B6
:10080000E709F608DFFA8046E709F208DFFA803EDA
:1008100088828C83E709F0A3DFFA8032E309F608C7
:10082000DFFA8078E309F208DFFA807088828C832F
:10083000E309F0A3DFFA806489828A83E0A3F608E3
:10084000DFFA805889828A83E0A3F208DFFA804CBD
:1008500080D280FA80C680D4806980F28033801094
:1008600080A680EA809A80A880DA80E280CA8033FD
:1008700089828A83ECFAE493A3C8C582C8CCC58375
:10088000CCF0A3C8C582C8CCC583CCDFE9DEE78045
:100890000D89828A83E493A3F608DFF9ECFAA9F0C4
:1008A000EDFB2289828A83ECFAE0A3C8C582C8CC1A
:1008B000C583CCF0A3C8C582C8CCC583CCDFEADE33
:1008C000E880DB89828A83E493A3F208DFF980CC95
:1008D00088F0EF60010E4E60C388F0ED2402B4048E
:1008E0000050B9F582EB2402B4040050AF23234535
:0608F00082239008507302
:00000001FF
